{
  "contractName": "FlightSuretyData",
  "abi": [
    {
      "constant": true,
      "inputs": [],
      "name": "n_airlines",
      "outputs": [
        {
          "name": "",
          "type": "uint256"
        }
      ],
      "payable": false,
      "stateMutability": "view",
      "type": "function"
    },
    {
      "constant": true,
      "inputs": [],
      "name": "REGISTRATION_FEE",
      "outputs": [
        {
          "name": "",
          "type": "uint256"
        }
      ],
      "payable": false,
      "stateMutability": "view",
      "type": "function"
    },
    {
      "constant": true,
      "inputs": [
        {
          "name": "",
          "type": "address"
        }
      ],
      "name": "voteCounts",
      "outputs": [
        {
          "name": "",
          "type": "uint256"
        }
      ],
      "payable": false,
      "stateMutability": "view",
      "type": "function"
    },
    {
      "constant": true,
      "inputs": [],
      "name": "NO_CONSENSUS",
      "outputs": [
        {
          "name": "",
          "type": "uint256"
        }
      ],
      "payable": false,
      "stateMutability": "view",
      "type": "function"
    },
    {
      "constant": true,
      "inputs": [
        {
          "name": "",
          "type": "address"
        },
        {
          "name": "",
          "type": "address"
        }
      ],
      "name": "voteTracker",
      "outputs": [
        {
          "name": "",
          "type": "uint256"
        }
      ],
      "payable": false,
      "stateMutability": "view",
      "type": "function"
    },
    {
      "inputs": [
        {
          "name": "firstAirline",
          "type": "address"
        }
      ],
      "payable": false,
      "stateMutability": "nonpayable",
      "type": "constructor"
    },
    {
      "payable": true,
      "stateMutability": "payable",
      "type": "fallback"
    },
    {
      "constant": true,
      "inputs": [
        {
          "name": "airline",
          "type": "address"
        }
      ],
      "name": "isAirlinePaid",
      "outputs": [
        {
          "name": "",
          "type": "bool"
        }
      ],
      "payable": false,
      "stateMutability": "view",
      "type": "function"
    },
    {
      "constant": true,
      "inputs": [],
      "name": "isCallerAuthorized",
      "outputs": [
        {
          "name": "",
          "type": "bool"
        }
      ],
      "payable": false,
      "stateMutability": "view",
      "type": "function"
    },
    {
      "constant": true,
      "inputs": [
        {
          "name": "airline",
          "type": "address"
        }
      ],
      "name": "isAirlineAuthorized",
      "outputs": [
        {
          "name": "",
          "type": "bool"
        }
      ],
      "payable": false,
      "stateMutability": "view",
      "type": "function"
    },
    {
      "constant": true,
      "inputs": [],
      "name": "isPaid",
      "outputs": [
        {
          "name": "",
          "type": "bool"
        }
      ],
      "payable": false,
      "stateMutability": "view",
      "type": "function"
    },
    {
      "constant": true,
      "inputs": [],
      "name": "isOperational",
      "outputs": [
        {
          "name": "",
          "type": "bool"
        }
      ],
      "payable": false,
      "stateMutability": "view",
      "type": "function"
    },
    {
      "constant": false,
      "inputs": [
        {
          "name": "mode",
          "type": "bool"
        }
      ],
      "name": "setOperatingStatus",
      "outputs": [],
      "payable": false,
      "stateMutability": "nonpayable",
      "type": "function"
    },
    {
      "constant": false,
      "inputs": [
        {
          "name": "airline_vote",
          "type": "address"
        }
      ],
      "name": "voteOnAirline",
      "outputs": [],
      "payable": false,
      "stateMutability": "nonpayable",
      "type": "function"
    },
    {
      "constant": false,
      "inputs": [],
      "name": "airlinePayAnte",
      "outputs": [],
      "payable": true,
      "stateMutability": "payable",
      "type": "function"
    },
    {
      "constant": false,
      "inputs": [
        {
          "name": "airline",
          "type": "address"
        }
      ],
      "name": "registerAirline",
      "outputs": [
        {
          "name": "success",
          "type": "bool"
        },
        {
          "name": "votes",
          "type": "uint256"
        }
      ],
      "payable": false,
      "stateMutability": "nonpayable",
      "type": "function"
    },
    {
      "constant": true,
      "inputs": [
        {
          "name": "airline",
          "type": "address"
        }
      ],
      "name": "isAirline",
      "outputs": [
        {
          "name": "status",
          "type": "bool"
        }
      ],
      "payable": false,
      "stateMutability": "view",
      "type": "function"
    },
    {
      "constant": false,
      "inputs": [],
      "name": "buy",
      "outputs": [],
      "payable": true,
      "stateMutability": "payable",
      "type": "function"
    },
    {
      "constant": true,
      "inputs": [],
      "name": "creditInsurees",
      "outputs": [],
      "payable": false,
      "stateMutability": "pure",
      "type": "function"
    },
    {
      "constant": true,
      "inputs": [],
      "name": "pay",
      "outputs": [],
      "payable": false,
      "stateMutability": "pure",
      "type": "function"
    },
    {
      "constant": false,
      "inputs": [],
      "name": "fund",
      "outputs": [],
      "payable": true,
      "stateMutability": "payable",
      "type": "function"
    }
  ],
  "bytecode": "0x60806040526001600660146101000a81548160ff021916908315150217905550600060075534801561003057600080fd5b506040516020806116ee8339810180604052810190808051906020019092919050505033600660006101000a81548173ffffffffffffffffffffffffffffffffffffffff021916908373ffffffffffffffffffffffffffffffffffffffff1602179055506000600260008373ffffffffffffffffffffffffffffffffffffffff1673ffffffffffffffffffffffffffffffffffffffff1681526020019081526020016000208190555060018060008373ffffffffffffffffffffffffffffffffffffffff1673ffffffffffffffffffffffffffffffffffffffff16815260200190815260200160002081905550506115c18061012d6000396000f300608060405260043610610107576000357c0100000000000000000000000000000000000000000000000000000000900463ffffffff1680630e248a1114610111578063110466ed1461016c5780631b9265b81461019b578063209ebc08146101b2578063247e6735146101e1578063275bf0f11461020c5780632a202d501461026757806336cee484146102c257806364b4f751146102d957806366a267a91461030457806389a1fe771461035b5780638b75c6011461038a5780639c57871f146103b5578063a6f2ae3a1461042c578063b60d428814610436578063b717674d14610440578063b99d546c1461044a578063bdfd98771461048d578063cd905dff146104ef575b61010f61051e565b005b34801561011d57600080fd5b50610152600480360381019080803573ffffffffffffffffffffffffffffffffffffffff169060200190929190505050610520565b604051808215151515815260200191505060405180910390f35b34801561017857600080fd5b50610199600480360381019080803515159060200190929190505050610618565b005b3480156101a757600080fd5b506101b06106fa565b005b3480156101be57600080fd5b506101c76106fc565b604051808215151515815260200191505060405180910390f35b3480156101ed57600080fd5b506101f66107f0565b6040518082815260200191505060405180910390f35b34801561021857600080fd5b5061024d600480360381019080803573ffffffffffffffffffffffffffffffffffffffff1690602001909291905050506107f6565b604051808215151515815260200191505060405180910390f35b34801561027357600080fd5b506102a8600480360381019080803573ffffffffffffffffffffffffffffffffffffffff1690602001909291905050506108eb565b604051808215151515815260200191505060405180910390f35b3480156102ce57600080fd5b506102d76109e1565b005b3480156102e557600080fd5b506102ee6109e3565b6040518082815260200191505060405180910390f35b34801561031057600080fd5b50610345600480360381019080803573ffffffffffffffffffffffffffffffffffffffff1690602001909291905050506109ef565b6040518082815260200191505060405180910390f35b34801561036757600080fd5b50610370610a07565b604051808215151515815260200191505060405180910390f35b34801561039657600080fd5b5061039f610afa565b6040518082815260200191505060405180910390f35b3480156103c157600080fd5b50610416600480360381019080803573ffffffffffffffffffffffffffffffffffffffff169060200190929190803573ffffffffffffffffffffffffffffffffffffffff169060200190929190505050610aff565b6040518082815260200191505060405180910390f35b610434610b24565b005b61043e61051e565b005b610448610b26565b005b34801561045657600080fd5b5061048b600480360381019080803573ffffffffffffffffffffffffffffffffffffffff169060200190929190505050610d21565b005b34801561049957600080fd5b506104ce600480360381019080803573ffffffffffffffffffffffffffffffffffffffff169060200190929190505050611271565b60405180831515151581526020018281526020019250505060405180910390f35b3480156104fb57600080fd5b5061050461157e565b604051808215151515815260200191505060405180910390f35b565b6000600660149054906101000a900460ff1615156105cc576040517f08c379a00000000000000000000000000000000000000000000000000000000081526004018080602001828103825260258152602001807f436f6e74726163742069732063757272656e746c79206e6f74206f706572617481526020017f696f6e616c00000000000000000000000000000000000000000000000000000081525060400191505060405180910390fd5b60018060008473ffffffffffffffffffffffffffffffffffffffff1673ffffffffffffffffffffffffffffffffffffffff16815260200190815260200160002054149050809050919050565b600660009054906101000a900473ffffffffffffffffffffffffffffffffffffffff1673ffffffffffffffffffffffffffffffffffffffff163373ffffffffffffffffffffffffffffffffffffffff161415156106dd576040517f08c379a000000000000000000000000000000000000000000000000000000000815260040180806020018281038252601c8152602001807f43616c6c6572206973206e6f7420636f6e7472616374206f776e65720000000081525060200191505060405180910390fd5b80600660146101000a81548160ff02191690831515021790555050565b565b6000600660149054906101000a900460ff1615156107a8576040517f08c379a00000000000000000000000000000000000000000000000000000000081526004018080602001828103825260258152602001807f436f6e74726163742069732063757272656e746c79206e6f74206f706572617481526020017f696f6e616c00000000000000000000000000000000000000000000000000000081525060400191505060405180910390fd5b6001600260003373ffffffffffffffffffffffffffffffffffffffff1673ffffffffffffffffffffffffffffffffffffffff1681526020019081526020016000205414905090565b60075481565b6000600660149054906101000a900460ff1615156108a2576040517f08c379a00000000000000000000000000000000000000000000000000000000081526004018080602001828103825260258152602001807f436f6e74726163742069732063757272656e746c79206e6f74206f706572617481526020017f696f6e616c00000000000000000000000000000000000000000000000000000081525060400191505060405180910390fd5b60018060008473ffffffffffffffffffffffffffffffffffffffff1673ffffffffffffffffffffffffffffffffffffffff16815260200190815260200160002054149050919050565b6000600660149054906101000a900460ff161515610997576040517f08c379a00000000000000000000000000000000000000000000000000000000081526004018080602001828103825260258152602001807f436f6e74726163742069732063757272656e746c79206e6f74206f706572617481526020017f696f6e616c00000000000000000000000000000000000000000000000000000081525060400191505060405180910390fd5b6001600260003373ffffffffffffffffffffffffffffffffffffffff1673ffffffffffffffffffffffffffffffffffffffff16815260200190815260200160002054149050919050565b565b678ac7230489e8000081565b60056020528060005260406000206000915090505481565b6000600660149054906101000a900460ff161515610ab3576040517f08c379a00000000000000000000000000000000000000000000000000000000081526004018080602001828103825260258152602001807f436f6e74726163742069732063757272656e746c79206e6f74206f706572617481526020017f696f6e616c00000000000000000000000000000000000000000000000000000081525060400191505060405180910390fd5b60018060003373ffffffffffffffffffffffffffffffffffffffff1673ffffffffffffffffffffffffffffffffffffffff1681526020019081526020016000205414905090565b600481565b6003602052816000526040600020602052806000526040600020600091509150505481565b565b600660149054906101000a900460ff161515610bd0576040517f08c379a00000000000000000000000000000000000000000000000000000000081526004018080602001828103825260258152602001807f436f6e74726163742069732063757272656e746c79206e6f74206f706572617481526020017f696f6e616c00000000000000000000000000000000000000000000000000000081525060400191505060405180910390fd5b6001600260003373ffffffffffffffffffffffffffffffffffffffff1673ffffffffffffffffffffffffffffffffffffffff16815260200190815260200160002054141515610cd757678ac7230489e8000034101515610c70576001600260003373ffffffffffffffffffffffffffffffffffffffff1673ffffffffffffffffffffffffffffffffffffffff168152602001908152602001600020819055505b678ac7230489e80000341115610cd2573373ffffffffffffffffffffffffffffffffffffffff166108fc678ac7230489e8000034039081150290604051600060405180830381858888f19350505050158015610cd0573d6000803e3d6000fd5b505b610d1f565b3373ffffffffffffffffffffffffffffffffffffffff166108fc349081150290604051600060405180830381858888f19350505050158015610d1d573d6000803e3d6000fd5b505b565b600660149054906101000a900460ff161515610dcb576040517f08c379a00000000000000000000000000000000000000000000000000000000081526004018080602001828103825260258152602001807f436f6e74726163742069732063757272656e746c79206e6f74206f706572617481526020017f696f6e616c00000000000000000000000000000000000000000000000000000081525060400191505060405180910390fd5b610dd4336108eb565b1515610e48576040517f08c379a00000000000000000000000000000000000000000000000000000000081526004018080602001828103825260138152602001807f43616c6c657220686173206e6f7420706169640000000000000000000000000081525060200191505060405180910390fd5b610e51336107f6565b1515610ec5576040517f08c379a000000000000000000000000000000000000000000000000000000000815260040180806020018281038252601e8152602001807f43616c6c657220686173206e6f74206265656e20617574686f72697a6564000081525060200191505060405180910390fd5b80610ecf816107f6565b151515610f44576040517f08c379a000000000000000000000000000000000000000000000000000000000815260040180806020018281038252601b8152602001807f4169726c696e6520686173206265656e20617574686f72697a6564000000000081525060200191505060405180910390fd5b6000600460008473ffffffffffffffffffffffffffffffffffffffff1673ffffffffffffffffffffffffffffffffffffffff1681526020019081526020016000205414156110de576001600460008473ffffffffffffffffffffffffffffffffffffffff1673ffffffffffffffffffffffffffffffffffffffff168152602001908152602001600020819055506001600360008473ffffffffffffffffffffffffffffffffffffffff1673ffffffffffffffffffffffffffffffffffffffff16815260200190815260200160002060003373ffffffffffffffffffffffffffffffffffffffff1673ffffffffffffffffffffffffffffffffffffffff168152602001908152602001600020819055506001600560008473ffffffffffffffffffffffffffffffffffffffff1673ffffffffffffffffffffffffffffffffffffffff1681526020019081526020016000205401600560008473ffffffffffffffffffffffffffffffffffffffff1673ffffffffffffffffffffffffffffffffffffffff1681526020019081526020016000208190555061126d565b6000600360008473ffffffffffffffffffffffffffffffffffffffff1673ffffffffffffffffffffffffffffffffffffffff16815260200190815260200160002060003373ffffffffffffffffffffffffffffffffffffffff1673ffffffffffffffffffffffffffffffffffffffff16815260200190815260200160002054141561126c576001600360008473ffffffffffffffffffffffffffffffffffffffff1673ffffffffffffffffffffffffffffffffffffffff16815260200190815260200160002060003373ffffffffffffffffffffffffffffffffffffffff1673ffffffffffffffffffffffffffffffffffffffff168152602001908152602001600020819055506001600560008473ffffffffffffffffffffffffffffffffffffffff1673ffffffffffffffffffffffffffffffffffffffff1681526020019081526020016000205401600560008473ffffffffffffffffffffffffffffffffffffffff1673ffffffffffffffffffffffffffffffffffffffff168152602001908152602001600020819055505b5b5050565b6000806000600660149054906101000a900460ff161515611320576040517f08c379a00000000000000000000000000000000000000000000000000000000081526004018080602001828103825260258152602001807f436f6e74726163742069732063757272656e746c79206e6f74206f706572617481526020017f696f6e616c00000000000000000000000000000000000000000000000000000081525060400191505060405180910390fd5b611329336107f6565b151561139d576040517f08c379a000000000000000000000000000000000000000000000000000000000815260040180806020018281038252601e8152602001807f43616c6c657220686173206e6f74206265656e20617574686f72697a6564000081525060200191505060405180910390fd5b6113a6336108eb565b151561141a576040517f08c379a00000000000000000000000000000000000000000000000000000000081526004018080602001828103825260138152602001807f43616c6c657220686173206e6f7420706169640000000000000000000000000081525060200191505060405180910390fd5b83611424816107f6565b151515611499576040517f08c379a000000000000000000000000000000000000000000000000000000000815260040180806020018281038252601b8152602001807f4169726c696e6520686173206265656e20617574686f72697a6564000000000081525060200191505060405180910390fd5b60046007541115156114ae5760019350611513565b600560008673ffffffffffffffffffffffffffffffffffffffff1673ffffffffffffffffffffffffffffffffffffffff1681526020019081526020016000205492506064600754848115156114ff57fe5b0402915060328210151561151257600193505b5b6001151584151514156115715760016007540160078190555060018060008773ffffffffffffffffffffffffffffffffffffffff1673ffffffffffffffffffffffffffffffffffffffff168152602001908152602001600020819055505b8383935093505050915091565b6000600660149054906101000a900460ff169050905600a165627a7a72305820b2cbff53fdc2bfc7de0e8dd46674182359a3946a3cf389ffd6bdff5faf4795ef0029",
  "source": "pragma solidity ^0.4.25;\n\nimport \"../node_modules/openzeppelin-solidity/contracts/math/SafeMath.sol\";\n\ncontract FlightSuretyData {\n    using SafeMath for uint256;\n\n    /********************************************************************************************/\n    /*                                       DATA VARIABLES                                     */\n    /********************************************************************************************/\n    struct Airline {\n        string id;\n        bool isRegistered;\n        bool isPaid;\n        uint256 bonus;\n        address wallet;\n    }\n\n    mapping(string => Airline) airlines; \n    mapping(address => uint256) private authorizedAirlines;\n    mapping(address => uint256) private paidAirlines;\n    mapping(address => mapping(address => uint256)) public voteTracker; //tracks which airlines have voted on which flights\n    mapping(address => uint256) private hasBeenVoted; //tracks if voteTracker has null values\n    mapping(address => uint256) public voteCounts; //counts of votes\n\n    // mapping(address => uint256) public voteCounter;\n    address private contractOwner;                                      // Account used to deploy contract\n    bool private operational = true;                                    // Blocks all state changes throughout the contract if false\n    uint256 public constant REGISTRATION_FEE = 10 ether;\n    uint256 public constant NO_CONSENSUS = 4;\n    uint256 public n_airlines = 0;\n    /********************************************************************************************/\n    /*                                       EVENT DEFINITIONS                                  */\n    /********************************************************************************************/\n\n\n    /**\n    * @dev Constructor\n    *      The deploying account becomes contractOwner\n    */\n    constructor(address firstAirline) \n                                public \n    {\n        contractOwner = msg.sender;\n        paidAirlines[firstAirline] = 0;\n        authorizedAirlines[firstAirline] = 1;\n\n\n        // register the caller of the constructor\n    }\n\n    /********************************************************************************************/\n    /*                                       FUNCTION MODIFIERS                                 */\n    /********************************************************************************************/\n\n    // Modifiers help avoid duplication of code. They are typically used to validate something\n    // before a function is allowed to be executed.\n\n    /**\n    * @dev Modifier that requires the \"operational\" boolean variable to be \"true\"\n    *      This is used on all state changing functions to pause the contract in \n    *      the event there is an issue that needs to be fixed\n    */\n    modifier requireIsOperational() \n    {\n        require(operational, \"Contract is currently not operational\");\n        _;  // All modifiers require an \"_\" which indicates where the function body will be added\n    }\n\n    /**\n    * @dev Modifier that requires the \"ContractOwner\" account to be the function caller\n    */\n    modifier requireContractOwner()\n    {\n        require(msg.sender == contractOwner, \"Caller is not contract owner\");\n        _;\n    }\n\n    modifier requireIsCallerPaid()\n    {\n        require(isAirlinePaid(msg.sender), \"Caller has not paid\");\n        _;\n    }\n\n\n    modifier requireIsAirlinePaid(address airline)\n    {\n        require(isAirlinePaid(airline), \"Caller has not paid\");\n        _;\n    }\n\n     modifier requireNotAirlinePaid(address airline)\n    {\n        require(!isAirlinePaid(airline), \"Caller has not paid\");\n        _;\n    }\n\n\n    modifier requireIsCallerAuthorized()\n    {\n        require(isAirlineAuthorized(msg.sender), \"Caller has not been authorized\");\n        _;\n    }\n\n\n     modifier requireNotAirlineAuthorized(address airline)\n    {\n        require(!isAirlineAuthorized(airline), \"Airline has been authorized\");\n        _;\n    }\n\n\n    function isAirlinePaid(address airline) public view requireIsOperational returns(bool) \n        {\n\n            return paidAirlines[msg.sender] == 1;\n        }\n\n\n    function isCallerAuthorized() public view requireIsOperational\n                                 returns(bool)\n        {\n            return authorizedAirlines[msg.sender] == 1;\n        }\n\n    function isAirlineAuthorized(address airline) public view \n                                requireIsOperational returns(bool)\n        {\n            return authorizedAirlines[airline] == 1;\n        }\n\n\n    function isPaid() public view requireIsOperational returns(bool) \n        {\n\n            return paidAirlines[msg.sender] == 1;\n        }\n\n    \n\n    /********************************************************************************************/\n    /*                                       UTILITY FUNCTIONS                                  */\n    /********************************************************************************************/\n\n    /**\n    * @dev Get operating status of contract\n    *\n    * @return A bool that is the current operating status\n    */      \n    function isOperational() \n                            public \n                            view \n                            returns(bool) \n    {\n        return operational;\n    }\n\n\n    /**\n    * @dev Sets contract operations on/off\n    *\n    * When operational mode is disabled, all write transactions except for this one will fail\n    */    \n    function setOperatingStatus(\n                                bool mode\n                            ) \n                            external\n                            requireContractOwner \n    {\n        operational = mode;\n    }\n\n    /********************************************************************************************/\n    /*                                     SMART CONTRACT FUNCTIONS                             */\n    /********************************************************************************************/\n\n    // votes on an airline to to \n    function voteOnAirline(address airline_vote\n                            ) public \n                            requireIsOperational\n                            requireIsCallerPaid\n                            requireIsCallerAuthorized\n                            requireNotAirlineAuthorized(airline_vote)\n\n        {\n            if (hasBeenVoted[airline_vote] == 0){\n                hasBeenVoted[airline_vote] = 1;\n                voteTracker[airline_vote][msg.sender] = 1;\n                voteCounts[airline_vote] = voteCounts[airline_vote] +1; \n                \n\n\n            } else {\n                if (voteTracker[airline_vote][msg.sender] == 0){\n                    voteTracker[airline_vote][msg.sender] = 1;\n                    voteCounts[airline_vote] = voteCounts[airline_vote] +1; \n\n                }\n\n            }\n\n\n        }\n\n\n   /**\n    * @dev Add an airline to the registration queue\n    *      Can only be called from FlightSuretyApp contract\n    *\n    */   \n    // Because the function is external, it can only be called from outside - check\n    // Need check if Airline has enough votes\n    //    // requireNotAirlinePaid(msg.sender)\n\n    function airlinePayAnte ()\n                    external\n                    payable\n                    requireIsOperational\n                 \n\n    {\n        // check if the airline has already paid or not\n        if(paidAirlines[msg.sender] != 1){\n            if (msg.value >= REGISTRATION_FEE){\n\n                paidAirlines[msg.sender] = 1;\n            \n            }\n\n            // send back remaining\n            if (msg.value > REGISTRATION_FEE){\n                msg.sender.transfer(msg.value - REGISTRATION_FEE);\n            }\n        } else{\n            msg.sender.transfer(msg.value);\n        }\n\n    }\n\n\n// // external\n    function registerAirline( address airline    \n                            )\n                            \n                            external\n                            requireIsOperational\n                            requireIsCallerAuthorized\n                            requireIsCallerPaid\n                            requireNotAirlineAuthorized(airline)\n                            returns(bool success, uint256 votes)\n\n    \n    {\n\n        // bool success_val = false;\n        // uint256 votes = 0;\n\n        // check if we are in the initial stages\n        if (n_airlines <= NO_CONSENSUS){\n            success = true;\n        } else {\n            votes = voteCounts[airline];\n            uint ratio = votes/n_airlines * 100;\n            if( ratio >= 50){\n                success = true;\n            }\n        }\n\n        if(success == true){\n            n_airlines = n_airlines + 1;\n            authorizedAirlines[airline] = 1;\n            \n        }\n        return (success, votes);\n    }\n\n\n    function isAirline(address airline) \n                        public\n                        requireIsOperational\n                        view\n                        returns(bool status)\n            {\n                status = authorizedAirlines[airline] == 1;\n                return status;\n\n            }\n\n\n   /**\n    * @dev Buy insurance for a flight\n    *\n    */   \n    function buy\n                            (                             \n                            )\n                            external\n                            payable\n    {\n\n    }\n\n    /**\n     *  @dev Credits payouts to insurees\n    */\n    function creditInsurees\n                                (\n                                )\n                                external\n                                pure\n    {\n    }\n    \n\n    /**\n     *  @dev Transfers eligible payout funds to insuree\n     *\n    */\n    function pay\n                            (\n                            )\n                            external\n                            pure\n    {\n    }\n\n   /**\n    * @dev Initial funding for the insurance. Unless there are too many delayed flights\n    *      resulting in insurance payouts, the contract should be self-sustaining\n    *\n    */   \n    function fund\n                            (   \n                            )\n                            public\n                            payable\n    {\n    }\n\n    function getFlightKey\n                        (\n                            address airline,\n                            string memory flight,\n                            uint256 timestamp\n                        )\n                        pure\n                        internal\n                        returns(bytes32) \n    {\n        return keccak256(abi.encodePacked(airline, flight, timestamp));\n    }\n\n    /**\n    * @dev Fallback function for funding smart contract.\n    *\n    */\n    function() \n                            external \n                            payable \n    {\n        fund();\n    }\n\n\n}\n\n",
  "sourcePath": "/Users/julianwaugh/old_machine/Documents/Julian/Post_College/coding_projects/blockchain_nanodegress/FlightSurety/FlightSurety/contracts/FlightSuretyData.sol",
  "compiler": {
    "name": "solc",
    "version": "0.4.26+commit.4563c3fc.Emscripten.clang"
  },
  "schemaVersion": "3.0.11",
  "updatedAt": "2022-01-12T23:44:07.550Z",
  "devdoc": {
    "methods": {
      "airlinePayAnte()": {
        "details": "Add an airline to the registration queue     Can only be called from FlightSuretyApp contract    "
      },
      "buy()": {
        "details": "Buy insurance for a flight    "
      },
      "creditInsurees()": {
        "details": "Credits payouts to insurees"
      },
      "fund()": {
        "details": "Initial funding for the insurance. Unless there are too many delayed flights     resulting in insurance payouts, the contract should be self-sustaining    "
      },
      "isOperational()": {
        "details": "Get operating status of contract",
        "return": "A bool that is the current operating status"
      },
      "pay()": {
        "details": "Transfers eligible payout funds to insuree    "
      },
      "setOperatingStatus(bool)": {
        "details": "Sets contract operations on/off    * When operational mode is disabled, all write transactions except for this one will fail"
      }
    }
  },
  "userdoc": {
    "methods": {
      "voteOnAirline(address)": {
        "notice": "*****************************************************************************************"
      }
    }
  }
}